:020000040000FA
:06000000C6EF00F0120043
:0A0006000100AA0100008A000000BA
:0400100005000000E7
:0C001400060EF66E000EF76E000EF86E81
:1000200000010900F550856F0900F550866F03E166
:10003000856701D03DD00900F550806F0900F5506B
:10004000816F0900F550826F09000900F550E96ED3
:100050000900F550EA6E090009000900F550836FA8
:100060000900F550846F09000900F6CF87F0F7CF3B
:1000700088F0F8CF89F080C0F6FF81C0F7FF82C01A
:10008000F8FF0001835302E1845307E00900F550B3
:10009000EE6E8307F8E28407F9D787C0F6FF88C0C1
:1000A000F7FF89C0F8FF00018507000E865BBFD708
:0200B00012003C
:0E00B200D9CFE6FFE1CFD9FF020EE1260F0EF7
:1000C000C16E800E936E956A836A010EDE6EDD6AE4
:1000D000DECF02F0DDCF03F0D890035004E6050E2A
:1000E000025C000E035820E281BE0AD0640EE66E68
:1000F0009FEC00F0E55281BE03D0836A81AEFED74B
:10010000DECFE9FFDDCFEAFF8A0EE926000EEA2204
:10011000EF50836E640EE66E9FEC00F0E552DF2A2E
:10012000010E01E3DB2AD4D7D0D7020EE15C02E254
:0E013000E16AE552E16EE552E7CFD9FF120019
:02013E00FF0EB2
:10014000E350056EEF0E01D0F30EE76EE72EA6EF3B
:1001500000F00C0E046EE76AE72EACEF00F0042E00
:0C016000ABEF00F0052EA4EF00F0120041
:04016C00000EF36E20
:1001700000EE00F0060E01D81200EA6002D0EE6A2E
:0C018000FCD7F350E9601200EE6AFCD7D7
:04018C0015EE00F07C
:1001900025EE00F0F86A019C0AEC00F0D4EC00F0C7
:0801A00059EC00F0FBD712003E
:0201A800120043
:0501AA00000102040841
:020000040030CA
:0100010002FC
:010003001EDE
:010005008377
:00000001FF
