:020000040000FA
:0600000000EF01F0120008
:020006000000F8
:0400080006EF00F00F
:04000C00DACFE4FF64
:10001000E2CFDAFFE9CFE4FFEACFE4FFF6CFE4FF77
:10002000F7CFE4FFF5CFE4FFF3CFE4FFF4CFE4FF35
:10003000FACFE4FF00EE02F0020EE80403E3EECF95
:10004000E4FFFBD700EE06F0000EE80403E3EECF7A
:10005000E4FFFBD7E652D9CFE6FFE1CFD9FF020E8E
:10006000E126F2A21AD0DE6ADD6ADECF00F0DDCF33
:1000700001F0D890015004E60A0E005C000E015811
:100080000BE28272320EE66ED9EC00F0E552DF2A06
:10009000010E01E3DB2AE9D7F292020EE15C02E2F3
:1000A000E16AE552E16EE552E7CFD9FFE55200EE95
:1000B00005F0000EE80403E3E5CFEDFFFBD700EE0B
:1000C00003F0020EE80403E3E5CFEDFFFBD7E5CF35
:1000D000FAFFE5CFF4FFE5CFF3FFE5CFF5FFE5CF7E
:1000E000F7FFE5CFF6FFE5CFEAFFE5CFE9FFE5CF84
:1000F000DAFF11000F0EC16E946A010E936EF28E3C
:10010000F288F19C8270320EE66ED9EC00F0E55276
:04011000F9D7120009
:0C011400060EF66E000EF76E000EF86E80
:1001200000010900F550856F0900F550866F03E165
:10013000856701D03DD00900F550806F0900F5506A
:10014000816F0900F550826F09000900F550E96ED2
:100150000900F550EA6E090009000900F550836FA7
:100160000900F550846F09000900F6CF87F0F7CF3A
:1001700088F0F8CF89F080C0F6FF81C0F7FF82C019
:10018000F8FF0001835302E1845307E00900F550B2
:10019000EE6E8307F8E28407F9D787C0F6FF88C0C0
:1001A000F7FF89C0F8FF00018507000E865BBFD707
:0201B00012003B
:0E01B200FF0EE350056EEF0E01D0F30EE76E68
:1001C000E72EE0EF00F00C0E046EE76AE72EE6EF94
:1001D00000F0042EE5EF00F0052EDEEF00F0120037
:1001E000000EF36E00EE00F0060E01D81200EA6079
:1001F00002D0EE6AFCD7F350E9601200EE6AFCD739
:1002000015EE00F025EE00F0F86A039C8AEC00F091
:0C0210000EEC01F07AEC00F0FBD71200BD
:02021C001200CE
:020000040030CA
:0100010002FC
:010003001EDE
:010005008179
:00000001FF
