:020000040000FA
:06000000F5EF02F0120012
:020006000000F8
:080008000F9E08D00F9E07AE09
:1000100005D0066C071EE86A07220F8E07C001F0A4
:1000200006C000F0136A126A8E0E026E036A5CEF5D
:1000300001F00F6A98EC01F0B0EC01F00FB640EF60
:1000400001F00FA205D00FBA40EF01F047EF01F029
:100050000FBA53EF01F00FA005D00FB840EF01F039
:1000600053EF01F00FB847EF01F0036A7F0E082449
:10007000026EE86A03220D50025EE86A035A1A0E05
:10008000106E086A126A136A006A016A0A50055EF5
:100090000B50065A0C50075A000E085A09E70A502E
:1000A00005260B5006220C500722000E082201D014
:1000B000128AD8900536063607360836D89012369A
:1000C000133600360136102EE1D707500610051002
:1000D000D8A4128A5CEF01F00F6A98EC01F0B0EC42
:1000E00001F00FB640EF01F00FA205D00FB840EFBE
:1000F00001F047EF01F00FAA05D00FB040EF01F07B
:1001000047EF01F00FB002D00FA802D053EF01F07B
:10011000036A0D500824026EE86A03227E0E025E16
:10012000E86A035A126A136A006A016A0C500702ED
:10013000F4CF01F0F3CF00F00B500702F350132679
:10014000F4500022000E01220C500602F350132638
:10015000F4500022000E01220A500702F35012262A
:10016000F4501322000E002201220B500602F3501D
:100170001226F4501322000E002201220C50050218
:10018000F3501226F4501322000E002201220A50CE
:100190000602F4501226000E1322002201220B50F8
:1001A0000502F4501226000E1322002201225CEFF9
:1001B00001F0EBEC00F00FB6000C0FB0000C0FB428
:1001C000000C010CEBEC00F00FB6000C0FB0000CB3
:1001D0000FA4000C010C0F6A98EC01F0B0EC01F0D8
:1001E0000FB612000FAE08D00FA004D00FA802D097
:1001F0000F8012000F9012000D50085C0BE10C50A4
:10020000075C08E10B50065C05E10A50055C02E161
:100210000F801200D8A002D00F8E10D008500DC051
:1002200008F00D6E07500CC007F00C6E06500BC0A6
:1002300006F00B6E05500AC005F00A6E0D50085C02
:1002400010E0FF0F09E00F900FB403D00FAE0F8442
:1002500012000FAE0F9412000D2AD8900C320B3200
:100260000A320A50055E0B50065A0C50075A07BE58
:10027000EAD7D890053606360736082EF8D7C8D7FD
:100280007F0E086EFF0E076E066E056E12007F0E63
:100290000FBEFF0E086E02D07F0E086E800E076E36
:1002A000066A056AF3D70FAE04D0800E086E076A9F
:1002B000F7D7086A076AF4D701500010131012101C
:1002C000F8E003BEF0D701BE0CD002500310EBE003
:1002D000D89012361336003601360206D8A003062F
:1002E000F2D70350D4E10228D2E012AE11D07F0E33
:1002F000121402E113A00CD0132AE86A0022012292
:1003000007E3D880013200321332022A0228BFE00C
:100310000250C9E013C005F000C006F00134076EBA
:100320000230086E0732089E0FBE088E46EF01F0BD
:100330000736083602E30F840F7E06E10F80086A55
:10034000076A066A056A1200082803E0D8800732A7
:100350001200D890073202E10F8212000F861200BD
:100360000C360D3602E30F8C0F7E06E10F880D6A06
:100370000C6A0B6A0A6A12000D2803E0D8800C325E
:0C0380001200D8900C32EAE10F8A120043
:04038C00010E926E5E
:10039000000E966E946E956E0F0EE66E040EE66E6F
:1003A000AB0EE66EAEEC02F0E552E552E55211EC12
:1003B00003F00CEC03F0000901E0FBD703EC03F0C1
:1003C000F3CF8AF0F4CF8BF08AC083FF8BC014F098
:1003D000156A1450826E8AC01CF08BC01DF0050E89
:1003E0001D02F3CF1DF01C02F3CF1CF0F4501D26AC
:1003F0001CC006F01DC007F006EC00F005C018F0A8
:1004000006C019F007C01AF008C01BF00A6AC00E37
:100410000B6E7F0E0C6E440E0D6E18C005F019C0E9
:1004200006F01AC007F01BC008F019EC00F005C078
:1004300014F006C015F007C016F008C017F00A6ADD
:100440000B6AC80E0C6E420E0D6E14C005F015C07E
:1004500006F016C007F017C008F06CEC00F005C0FD
:100460008CF006C08DF007C08EF008C08FF00A6ACD
:100470000B6AC80E0C6E410E0D6E8CC005F08DC05F
:1004800006F08EC007F08FC008F0D9EC00F0010A2A
:1004900014E10A6A0B6A0C0E0C6E420E0D6E8CC0D3
:1004A00005F08DC006F08EC007F08FC008F0E2ECBA
:0E04B00000F0010A02E1848401D0849412005D
:0204BE00060E28
:1004C000F66E000EF76E000EF86E00010900F55092
:1004D000856F0900F550866F03E1856701D03DD037
:1004E0000900F550806F0900F550816F0900F55043
:1004F000826F09000900F550E96E0900F550EA6EB7
:10050000090009000900F550836F0900F550846F58
:1005100009000900F6CF87F0F7CF88F0F8CF89F00F
:1005200080C0F6FF81C0F7FF82C0F8FF000183534F
:1005300002E1845307E00900F550EE6E8307F8E20C
:100540008407F9D787C0F6FF88C0F7FF89C0F8FF96
:0C05500000018507000E865BBFD712007B
:04055C00D9CFE6FF0E
:10056000DACFE6FFE1CFD9FFE2CFDAFFC26AC06A95
:10057000FC0EDB407F0B3C0BC26EFC0EDB38F00B3D
:10058000300B146EFB0EDB500F0B1410C16EFD0E02
:10059000DB50040DF350380B156EFD0EDB380F0BDE
:1005A000070B146EFD0EDB50800B14101510C06E7F
:1005B000FC0EDBAE03D09E9C9D8CF28CC280E5527B
:0A05C000E5CFDAFFE7CFD9FF120004
:0605CA00000EF36E00EECE
:1005D00000F0060E01D81200EA6002D0EE6AFCD7E5
:0A05E000F350E9601200EE6AFCD748
:0605EA0015EE00F025EE05
:1005F00000F0F86A0F9C5FEC02F013EC03F0C6EC1D
:0606000001F0FBD712001F
:0A060600C450176E166AC350161098
:08061000F36E17C0F4FF1200A5
:08061800C250020B01E0010ECB
:020620001200C6
:04062200C28212007E
:020626001200C0
:020000040030CA
:0100010002FC
:010003001EDE
:010005008377
:00000001FF
