:020000040000FA
:06000000BEEF00F012004B
:0A00060001009A0100008A000000CA
:0400100005000000E7
:0C001400060EF66E000EF76E000EF86E81
:1000200000010900F550856F0900F550866F03E166
:10003000856701D03DD00900F550806F0900F5506B
:10004000816F0900F550826F09000900F550E96ED3
:100050000900F550EA6E090009000900F550836FA8
:100060000900F550846F09000900F6CF87F0F7CF3B
:1000700088F0F8CF89F080C0F6FF81C0F7FF82C01A
:10008000F8FF0001835302E1845307E00900F550B3
:10009000EE6E8307F8E28407F9D787C0F6FF88C0C1
:1000A000F7FF89C0F8FF00018507000E865BBFD708
:0200B00012003C
:0E00B200D9CFE6FFE1CFD9FF020EE126DE6ACC
:1000C000DD6A0F0EC16E800E936E946A826A81BEE5
:1000D00023D0640EE66E97EC00F0E55281AEFED7B9
:1000E000DF2A010E01E3DB2ADECF02F0DDCF03F0D1
:1000F000033404E202500408000E035403E2010E2C
:10010000DE6EDD6ADECFE9FFDDCFEAFF8A0EE9268B
:10011000000EEA22EF50826EDAD7020EE15C02E2B4
:0E012000E16AE552E16EE552E7CFD9FF120029
:02012E00FF0EC2
:10013000E350056EEF0E01D0F30EE76EE72E9EEF53
:1001400000F00C0E046EE76AE72EA4EF00F0042E18
:0C015000A3EF00F0052E9CEF00F0120061
:04015C00000EF36E30
:1001600000EE00F0060E01D81200EA6002D0EE6A3E
:0C017000FCD7F350E9601200EE6AFCD7E7
:04017C0015EE00F08C
:1001800025EE00F0F86A019C0AEC00F0CCEC00F0DF
:0801900059EC00F0FBD712004E
:02019800120053
:05019A00000102040851
:020000040030CA
:0100010002FC
:010003001EDE
:010005008377
:00000001FF
